:020000040800F2
:100000000000022091890008B95B0008C15B00086C
:10001000C95B0008D15B0008D95B00080000000044
:10002000000000000000000000000000E15B00088C
:10003000EF5B000800000000FD5B00080B5C00089F
:10004000E1890008E1890008E1890008E1890008E8
:10005000E1890008E1890008E1890008E1890008D8
:10006000E1890008E1890008E1890008E1890008C8
:10007000E1890008E1890008E1890008E1890008B8
:10008000E1890008E1890008E1890008E1890008A8
:10009000E1890008E1890008E1890008175C00088F
:1000A000E1890008E1890008E1890008E189000888
:1000B000E1890008E1890008E1890008E189000878
:1000C000E1890008E1890008E1890008E189000868
:1000D000E1890008E1890008E1890008E189000858
:1000E000E1890008E1890008E1890008E189000848
:1000F000E1890008E1890008E1890008E189000838
:10010000E1890008E1890008E1890008E189000827
:10011000E1890008E1890008255C0008E189000800
:10012000E1890008E1890008E1890008E189000807
:10013000E1890008E1890008E1890008E1890008F7
:10014000E1890008E1890008E1890008E1890008E7
:10015000E1890008E1890008E1890008E1890008D7
:10016000E1890008E1890008E1890008E1890008C7
:10017000E1890008E1890008E18900080000000029
:08018000E1890008E189000893
:1001900001F0FF01102A2BDB10F0070F08D010F838
:1001A000013B013A8B422DD010F0070F42B3F6D13C
:1001B000F0B441EA012141EA014122F007047FF055
:1001C00000070023F0E80256083C85EA010586EAAC
:1001D000010685FA47F5A3FA87F586FA47F6A5FAE8
:1001E00087F68EB9EED1F0BC01F0FF0102F00702F4
:1001F00032B110F8013B013A83EA010313B1F8D19F
:100200000020704701387047002D06BF354603387F
:10021000073815F0010F07D1013015F4807F02BFB8
:10022000013015F4C03F0130F0BC0138704700BF09
:10023000034613F8012B002AFBD1181A0138704726
:1002400081F0004102E000BF83F0004330B54FEA87
:1002500041044FEA430594EA050F08BF90EA020FF4
:100260001FBF54EA000C55EA020C7FEA645C7FEA87
:10027000655C00F0E2804FEA5454D4EB5555B8BFAA
:100280006D420CDD2C4480EA020281EA030382EA1B
:10029000000083EA010180EA020281EA0303362DAD
:1002A00088BF30BD11F0004F4FEA01314FF4801C80
:1002B0004CEA113102D0404261EB410113F0004F92
:1002C0004FEA03334CEA133302D0524263EB430349
:1002D00094EA050F00F0A780A4F10104D5F1200EE7
:1002E0000DDB02FA0EFC22FA05F2801841F1000142
:1002F00003FA0EF2801843FA05F359410EE0A5F116
:1003000020050EF1200E012A03FA0EFC28BF4CF046
:10031000020C43FA05F3C01851EBE37101F00045FC
:1003200007D54FF0000EDCF1000C7EEB00006EEB09
:100330000101B1F5801F1BD3B1F5001F0CD3490893
:100340005FEA30004FEA3C0C04F101044FEA4452EA
:1003500012F5800F80F09A80BCF1004F08BF5FEA71
:10036000500C50F1000041EB045141EA050130BD51
:100370005FEA4C0C404141EB0101013C28BFB1F563
:10038000801FE9D291F0000F04BF01460020B1FAAE
:1003900081F308BF2033A3F10B03B3F120020CDA81
:1003A0000C3208DD02F1140CC2F10C0201FA0CF05F
:1003B00021FA02F10CE002F11402D8BFC2F1200CC4
:1003C00001FA02F120FA0CFCDCBF41EA0C0190407A
:1003D000E41AA2BF01EB0451294330BD6FEA0404C3
:1003E0001F3C1CDA0C340EDC04F11404C4F12002AE
:1003F00020FA04F001FA02F340EA030021FA04F3C0
:1004000045EA030130BDC4F10C04C4F1200220FA16
:1004100002F001FA04F340EA0300294630BD21FA54
:1004200004F0294630BD94F0000F83F4801306BF1A
:1004300081F480110134013D4EE77FEA645C18BF0E
:100440007FEA655C29D094EA050F08BF90EA020FA5
:1004500005D054EA000C04BF1946104630BD91EA9D
:10046000030F1EBF0021002030BD5FEA545C05D1A0
:100470004000494128BF41F0004130BD14F58004DF
:100480003CBF01F5801130BD01F0004545F0FE4153
:1004900041F470014FF0000030BD7FEA645C1ABF88
:1004A000194610467FEA655C1CBF0B46024650EABF
:1004B000013406BF52EA033591EA030F41F40021EB
:1004C00030BD00BF90F0000F04BF0021704730B571
:1004D0004FF4806404F132044FF000054FF0000146
:1004E00050E700BF90F0000F04BF0021704730B507
:1004F0004FF4806404F1320410F0004548BF4042DC
:100500004FF000013EE700BF42004FEAE2014FEA30
:1005100031014FEA02701FBF12F07F4393F07F4F0B
:1005200081F06051704732F07F4208BF704793F00E
:100530007F4F04BF41F40021704730B54FF4607421
:1005400001F0004521F000411CE700BF50EA010224
:1005500008BF704730B54FF000050AE050EA0102CD
:1005600008BF704730B511F0004502D5404261EB3D
:1005700041014FF4806404F132045FEA915C3FF47E
:10058000D8AE4FF003025FEADC0C18BF03325FEA1B
:10059000DC0C18BF033202EBDC02C2F1200300FACC
:1005A00003FC20FA02F001FA03FE40EA0E0021FAF1
:1005B00002F11444BDE600BF70B54FF0FF0C4CF4DF
:1005C000E06C1CEA11541DBF1CEA135594EA0C0F91
:1005D00095EA0C0F00F0DEF82C4481EA030621EACC
:1005E0004C5123EA4C5350EA013518BF52EA033507
:1005F00041F4801143F4801338D0A0FB02CE4FF0B9
:100600000005E1FB02E506F00042E0FB03E54FF0E8
:100610000006E1FB03569CF0000F18BF4EF0010EE0
:10062000A4F1FF04B6F5007F64F5407404D25FEADC
:100630004E0E6D4146EB060642EAC62141EA55518F
:100640004FEAC52040EA5E504FEACE2EB4F1FD0CD1
:1006500088BFBCF5E06F1ED8BEF1004F08BF5FEA4F
:10066000500E50F1000041EB045170BD06F0004601
:1006700046EA010140EA020081EA0301B4EB5C04AE
:10068000C2BFD4EB0C0541EA045170BD41F48011A6
:100690004FF0000E013C00F3AB8014F1360FDEBFCB
:1006A000002001F0004170BDC4F10004203C35DAA7
:1006B0000C341BDC04F11404C4F1200500FA05F32A
:1006C00020FA04F001FA05F240EA020001F00042CB
:1006D00021F0004110EBD37021FA04F642EB060141
:1006E0005EEA430E08BF20EAD37070BDC4F10C046B
:1006F000C4F1200500FA04F320FA05F001FA04F22F
:1007000040EA020001F0004110EBD37041F100011A
:100710005EEA430E08BF20EAD37070BDC4F1200525
:1007200000FA05F24EEA020E20FA04F301FA05F28D
:1007300043EA020321FA04F001F0004121FA04F235
:1007400020EA020000EBD3705EEA430E08BF20EA05
:10075000D37070BD94F0000F0FD101F0004640003F
:1007600041EB010111F4801F08BF013CF7D041EAC1
:10077000060195F0000F18BF704703F000465200C5
:1007800043EB030313F4801F08BF013DF7D043EA96
:100790000603704794EA0C0F0CEA135518BF95EA4C
:1007A0000C0F0CD050EA410618BF52EA4306D1D1D3
:1007B00081EA030101F000414FF0000070BD50EAF2
:1007C000410606BF1046194652EA430619D094EA7C
:1007D0000C0F02D150EA013613D195EA0C0F05D166
:1007E00052EA03361CBF104619460AD181EA0301BA
:1007F00001F0004141F0FE4141F470014FF0000072
:1008000070BD41F0FE4141F4780170BD70B54FF00C
:10081000FF0C4CF4E06C1CEA11541DBF1CEA13558C
:1008200094EA0C0F95EA0C0F00F0A7F8A4EB05046E
:1008300081EA030E52EA03354FEA013100F0888065
:100840004FEA03334FF0805545EA131343EA12632E
:100850004FEA022245EA111545EA10654FEA0026E3
:100860000EF000419D4208BF964244F1FD0404F59C
:10087000407402D25B084FEA3202B61A65EB0305F8
:100880005B084FEA32024FF480104FF4002CB6EBB5
:10089000020E75EB030E22BFB61A754640EA0C0035
:1008A0005B084FEA3202B6EB020E75EB030E22BF75
:1008B000B61A754640EA5C005B084FEA3202B6EBB6
:1008C000020E75EB030E22BFB61A754640EA9C0075
:1008D0005B084FEA3202B6EB020E75EB030E22BF45
:1008E000B61A754640EADC0055EA060E18D04FEA03
:1008F000051545EA16754FEA06164FEAC30343EAA3
:1009000052734FEAC2025FEA1C1CC0D111F4801F6F
:100910000BD141EA00014FF000004FF0004CB6E768
:1009200011F4801F04BF01430020B4F1FD0C88BF07
:10093000BCF5E06F3FF6AFAEB5EB030C04BFB6EB12
:10094000020C5FEA500C50F1000041EB045170BD05
:100950000EF0004E4EEA113114EB5C04C2BFD4EB32
:100960000C0541EA045170BD41F480114FF0000EB6
:10097000013C90E645EA060E8DE60CEA135594EA32
:100980000C0F08BF95EA0C0F3FF43BAF94EA0C0F35
:100990000AD150EA01347FF434AF95EA0C0F7FF4AA
:1009A00025AF104619462CE795EA0C0F06D152EAFE
:1009B00003353FF4FDAE1046194622E750EA4106E2
:1009C00018BF52EA43067FF4C5AE50EA41047FF4F3
:1009D0000DAF52EA43057FF4EBAE12E74FF0FF3C58
:1009E00006E000BF4FF0010C02E000BF4FF0010C29
:1009F0004DF804CD4FEA410C7FEA6C5C4FEA430CA2
:100A000018BF7FEA6C5C1BD001B050EA410C0CBFF0
:100A100052EA430C91EA030F02BF90EA020F002052
:100A2000704710F1000F91EA030F58BF994208BFB9
:100A300090422CBFD8176FEAE37040F00100704776
:100A40004FEA410C7FEA6C5C02D150EA013C07D1CD
:100A50004FEA430C7FEA6C5CD6D152EA033CD3D018
:100A60005DF8040B704700BF8446104662468C4612
:100A70001946634600E000BF01B5FFF7B7FF002845
:100A800048BF10F1000F01BD4DF808EDFFF7F4FF6E
:100A90000CBF012000205DF808FB00BF4DF808EDF9
:100AA000FFF7EAFF34BF012000205DF808FB00BF1C
:100AB0004DF808EDFFF7E0FF94BF012000205DF83E
:100AC00008FB00BF4DF808EDFFF7CEFF94BF0120F3
:100AD00000205DF808FB00BF4DF808EDFFF7C4FFEC
:100AE00034BF012000205DF808FB00BF4FEA410C35
:100AF0007FEA6C5C02D150EA013C0AD14FEA430C18
:100B00007FEA6C5C02D152EA033C02D14FF0000054
:100B100070474FF0010070474FEA410212F5001292
:100B200015D211D56FF47873B3EB625212D94FEA34
:100B3000C12343F0004343EA505311F0004F23FA1E
:100B400002F018BF404270474FF00000704750EA73
:100B5000013005D111F0004008BF6FF00040704730
:100B60004FF00000704700BF53B94AB9002908BFD1
:100B700000281CBF4FF0FF314FF0FF3000F00CB8E1
:100B8000ADF1080C6DE904CE07F02CFFDDF804E0B0
:100B9000DDE9022304B07047704700BF0348044BEF
:100BA000834202D0034B03B118477047080200206C
:100BB00008020020000000000548064B1B1AD90F50
:100BC00001EBA301491002D0034B03B11847704752
:100BD00008020020080200200000000010B5064CAA
:100BE000237843B9FFF7DAFF044B13B10448AFF39E
:100BF00000800123237010BD0802002000000000C7
:100C0000F890000808B5054B1BB105490548AFF33E
:100C10000080BDE80840FFF7CFBF00BF0000000024
:100C20000C020020F89000082DE9FF4757EC106BEC
:100C3000002F0C4619463B46BBBF07F100431F4639
:100C400000232D230B700D9BDDF830A0914623F07F
:100C50002008BCBF32461646B8F1460F05D0B8F1A1
:100C6000450F00D10134022100E0032103AB0193C1
:100C700002AB009347EC106B5346224600F034FE63
:100C8000B8F1470F054619D119F0010F0ED000EB4E
:100C900004090022002330463946FFF7F5FE08B16B
:100CA000CDF80C903022039B4B451ED3039B0E9A2C
:100CB0005B1B2846136004B0BDE8F087B8F1460F0F
:100CC00000EB0409E5D10378302B0AD10022002380
:100CD00030463946FFF7D8FE18B9C4F10104CAF806
:100CE0000040DAF800309944D3E7591C03911A7098
:100CF000D9E7F7B50029BABF49422D232B2309298B
:100D00000270437029DD0DF1070425460A272246AB
:100D1000B1FBF7F607FB1613303302F8013C0B4624
:100D2000632B04F1FF343146F1DC3031931E04F8BB
:100D3000011C411C1C46AB420AD30DF109039B1A4E
:100D4000A54238BF0023821C1344181A03B0F0BD1B
:100D500013F8016B01F8016FEDE730233031837038
:100D6000C170031DF1E700002DE9F04F8DB00C4676
:100D7000DDF8588016461F46054600F0BBFC0368A8
:100D800006931846FFF754FA00230A93D8F8003068
:100D900094F818A0D4F800B00790073323F00703A5
:100DA000B3EC027B8DED047BC8F80030DDE90483F1
:100DB00023F0004984ED127B9C4B4FF0FF324046FC
:100DC0004946FFF793FE70BB984B4FF0FF32404609
:100DD0004946FFF76DFE30BBDDE904010022002328
:100DE000FFF75CFE10B12D2384F84330904A914BFD
:100DF000BAF1470F8CBF90469846032323612BF02E
:100E0000040323604FF00009009733460BAA2146E4
:100E1000284600F0D1F9013040F08C804FF0FF30CF
:100E20000DB0BDE8F08FDDE9042310461946FFF749
:100E30005DFE40B1059B804A002BBCBF2D2384F88A
:100E400043307E4BD4E763685A1C0AF0DF093BD17C
:100E5000062363604BF480620023226003930AAB95
:100E6000CDE901A309AB009361689DED040B0DF181
:100E700023032846FFF7D8FEB9F1470F09998046AA
:100E800029D1C81C02DB63688B4241DAAAF1020A4D
:100E90005FFA8AFA0139524604F150000991FFF7CE
:100EA00028FF0A9A1318012A8146236102DC22686E
:100EB000D20701D5013323619DF82330002BA3D045
:100EC0002D2384F843309FE7B9F1470FC2D1002B9F
:100ED000C0D10123BDE7BAF1650FDBD9BAF1660FC6
:100EE00018D1002963680BDD216113B92268D0078E
:100EF00002D501330B442361A1654FF00009DBE704
:100F000013B92268D20701D50233F4E70123F2E7CF
:100F10004FF0670A0A9B8B4205DC23682161D807E2
:100F2000EAD54B1CE7E70029D4BFC1F10202012238
:100F30001344E0E723685A0507D423694246314643
:100F40002846B84701302BD168E7BAF1650F40F267
:100F5000DD80D4E9120100220023FFF795FD00286F
:100F600033D0374A012331462846B84701303FF491
:100F700055AFDDE90938434502DB2368D8070FD5B3
:100F8000DDE9062331462846B84701303FF446AF35
:100F90004FF0000908F1FF3804F11A0AC84509DCCE
:100FA00023689B0700F10381E0680B9B9842B8BF60
:100FB000184635E70123524631462846B8470130E6
:100FC0003FF42CAF09F10109E8E7099B002B39DC5C
:100FD0001B4A012331462846B84701303FF41EAF73
:100FE000DDE9093959EA030302D12368D907D7D5C6
:100FF000DDE9062331462846B84701303FF40EAFFD
:101000004FF0000A04F11A0B099B5B42534501DCC7
:101010004B4693E701235A4631462846B8470130EC
:101020003FF4FCAE0AF1010AEEE700BFFFFFEF7FDD
:101030000C9300080893000814930008109300080C
:1010400018930008A36DDDF828A05345A8BF5346A8
:10105000002B994636DC4FF0000B29EAE97904F1C0
:101060001A02A36D0493A3EB09035B4531DC099BD2
:101070009A453ADC2368DA0737D4099BAAEB0309BF
:10108000049BAAEB03039945A8BF9946B9F1000F49
:1010900033DC4FF0000829EAE97904F11A0B099BC7
:1010A000AAEB0303A3EB090343457FF779AF0123C1
:1010B0005A4631462846B84701303FF4AFAE08F1F2
:1010C0000108ECE7424631462846B8470130C2D114
:1010D000A4E60123314628460492B84701303FF484
:1010E0009DAE049A0BF1010BBBE7DDE90623314607
:1010F0002846B8470130C0D190E6049A4B46424496
:1011000031462846B8470130C3D187E6DDF828A02C
:10111000BAF1010F01DCDB0736D501234246314627
:101120002846B84701303FF479AEDDE90623314661
:101130002846B84701303FF471AED4E912010022CD
:1011400000230AF1FF3AFFF79FFCC0B9534608F1AC
:10115000010231462846B84701300CD15EE6012332
:101160005A4631462846B84701303FF457AE08F199
:101170000108D045F3DB4B4604F15002DFE64FF0A7
:10118000000804F11A0BF4E701234246E1E70123CA
:101190004A4631462846B84701303FF43FAE08F191
:1011A0000108E3680B995B1A4345F0DCFCE64FF05D
:1011B000000804F11909F4E72DE9F04716469846AE
:1011C0008A680B69DDF820909342B8BF13463360FC
:1011D00091F8432007460C460AB101333360236877
:1011E000990642BF336802333360256815F006055F
:1011F00006D104F1190AE36832689B1AAB4226DC77
:1012000094F843302268003B18BF012392062BD488
:1012100004F1430241463846C84701301ED02368D6
:10122000226903F00603042B02BFE5683368ED1A58
:10123000A3680CBF25EAE57500259342C4BF9B1A3D
:10124000ED1800261A34B5421AD1002008E0012317
:10125000524641463846C847013003D14FF0FF306F
:10126000BDE8F0870135C6E7E1185A1C302081F847
:101270004300224494F8451082F843100233C7E734
:101280000123224641463846C8470130E6D00136A0
:10129000D9E700002DE9FF470F7E0C9E782F91467D
:1012A00080460C469A4601F1430207D8622F0AD8BD
:1012B000002F00F0D280582F00F0B78004F14206D2
:1012C00084F842703AE0A7F16303152BF6D801A128
:1012D00051F823F02D13000841130008BD12000837
:1012E000BD120008BD120008BD120008411300081D
:1012F000BD120008BD120008BD120008BD12000892
:10130000411400086B130008F7130008BD12000811
:10131000BD12000863140008BD1200086B1300081A
:10132000BD120008BD120008FF13000833681A1D23
:101330001B68326004F1420684F8423001239DE0CC
:1013400033682068191D3160060601D51D6803E069
:101350004506FBD5B3F90050002D03DA2D236D426D
:1013600084F8433059480A2310E02168336808069E
:1013700053F8045B02D4490648BFADB26F2F5348FF
:10138000336059D10823002184F843106668A660B1
:10139000002E05DB21682E4321F0040121604DD091
:1013A0001646B5FBF3F103FB1157C75D06F8017D47
:1013B0002F46BB420D46F4D9082B0BD12368DF071B
:1013C00008D5236961689942DEBF302306F8013CE5
:1013D00006F1FF36921B2261CDF800A04B4603AA0E
:1013E00021464046FFF7E8FE01304CD14FF0FF3078
:1013F00004B0BDE8F087236843F02003236034483D
:10140000782784F84570236831681F0651F8045B1B
:1014100002D45F0648BFADB23160D90744BF43F084
:10142000200323601DB11023ADE72848E9E72368B6
:1014300023F020032360F6E70A23A4E71646BBE760
:10144000336825686169181D30602E061B6801D558
:10145000196002E06806FBD5198000232361164657
:10146000BAE733681A1D32601E6862680021304690
:10147000FEF78EFE08B1801B606063682361002365
:1014800084F84330A8E72369324649464046D047AE
:101490000130ABD023689B0713D4E068039B9842CC
:1014A000B8BF1846A4E70123324649464046D04714
:1014B00001309BD00135E36803995B1AAB42F2DC43
:1014C000EBE7002504F11906F5E700BF1A930008C1
:1014D0002B930008002310B50446C0E90033C0E98F
:1014E0000433836081814366C28183611946082287
:1014F0005C3000F0F7F80D4B63620D4BA3620D4BAF
:10150000E3620D4B23630D4B24629C4206D003F132
:101510006802944202D0D0339C4205D104F15800B5
:10152000BDE8104000F054B910BD00BF5D160008C2
:101530007F160008B7160008DD16000824020020F8
:10154000024A0349034800F06BB800BF00000020C6
:10155000BD2E00081000002041680C4B994210B5C8
:10156000044601D001F0AAFCA168094B994202D0BF
:10157000204601F0A3FCE168064B994204D02046C6
:10158000BDE8104001F09ABC10BD00BF240200204D
:101590008C020020F40200200C4B0D4A0D4810B5BF
:1015A00004211A600022FFF795FF0A4B01221C4616
:1015B000092103F16800FFF78DFF04F1D00002223A
:1015C000BDE810401221FFF785BF00BF5C0300207B
:1015D0004115000824020020014800F0FAB800BFBD
:1015E00065030020014800F0F5B800BF6503002046
:1015F00010B50446FFF7F0FF236A1BB1BDE81040A9
:10160000FFF7F0BF044B2362044B1B68002BF5D19E
:10161000FFF7C2FFF2E700BF591500085C03002086
:101620002DE9F8430746884614460026D4E901957B
:10163000B9F1010905D52468002CF7D13046BDE881
:10164000F883AB89012B07D9B5F90E30013303D0EC
:1016500029463846C04706436835E9E710B50C46C9
:10166000B1F90E1000F06CF80028ABBF636DA389D0
:101670001B1823F48053ACBF6365A38110BD2DE913
:10168000F0411F468B89DB0505460C46164605D5FD
:10169000B1F90E100223002200F040F8A389B4F93A
:1016A0000E1023F48053A38132463B462846BDE802
:1016B000F04100F057B810B50C46B1F90E1000F02B
:1016C0002DF8B4F90C30421C0BBF23F4805343F4C3
:1016D0008053A381A38118BF606510BDB1F90E10BE
:1016E00000F00CB802440346934200D1704703F85F
:1016F000011BF9E7004870474C01002038B5064D42
:101700000023044608462B6007F00EF9431C02D163
:101710002B6803B1236038BD6003002038B5074D46
:1017200004460846114600222A601A4607F023F9AB
:10173000431C02D12B6803B1236038BD6003002035
:1017400038B5074D04460846114600222A601A465D
:1017500007F0CDF8431C02D12B6803B1236038BDDC
:101760006003002038B5074D0446084611460022A4
:101770002A601A4602F0D2F9431C02D12B6803B149
:10178000236038BD6003002070B50D4B0D4D5B1B11
:101790009C100026A64209D107F0AEFC0A4D0B4B67
:1017A0005B1B9C100026A64205D170BD55F8043B7A
:1017B00098470136EEE755F8043B98470136F2E7C3
:1017C00040C6000840C6000840C6000844C60008DD
:1017D0007047704770472DE9F74F03690C69A342C2
:1017E00007467EDB013C01F11408A30000F114055B
:1017F000009305EB8403019358F8243055F8242016
:1018000001339A4208EB8409B2FBF3F62ED34FF072
:10181000000AC446AE46D3465CF8043B98B206FBC9
:1018200000A0020C1B0C06FB0323DEF8002080B294
:1018300092B2121A5A44DEF800004FEA134A9BB2E1
:10184000C3EB224303EB104392B242EA0342E14569
:101850004EF8042B4FEA234BDED2009BEB582BB9FA
:10186000019B043B9D421A462FD33C61384601F050
:1018700097F9002825DB2946002058F8042BD1F8D9
:1018800000C01FFA82FE1FFA8CF3A3EB0E03034481
:10189000120CC2EB234202EB1C429BB243EA02430E
:1018A000C14541F8043B4FEA2240E6D255F82420D6
:1018B00005EB840322B9043B9D421A460BD33C61DD
:1018C0000136304603B0BDE8F08F1268043B002AB1
:1018D000CBD1013CC6E71268043B002AEFD1013CA2
:1018E000EAE70020EEE700002DE9F04F99B08DED1A
:1018F0000E0B0C92C269229C0A9157EC106B814628
:10190000139382B9102000F019FE0246C9F81C009A
:1019100020B9AD4BEF21AD4801F016FB0023C0E923
:1019200001330360C360116859B152684A600123F2
:1019300093408B60484600F0F5FED9F81C30002239
:101940001A60B7F10008B5BF0123002323602360AC
:101950009F4BBCBF28F00048CDF83C8033EA080319
:101960001AD1139AC8F3130842F20F7358EA060803
:10197000136000F06C85239B53B9964B21E0964B86
:1019800000930833239A1360009819B0BDE8F08FD4
:10199000904B00930333F5E79DED0E7B002251EC55
:1019A000170B00238DED067BFFF76EF8824650B1D2
:1019B000139A01231360239B13B1239A874B13605F
:1019C000874B0093E0E79DED060B16AA17A9484642
:1019D00001F09AF95FEA1854169D019079D0079B9F
:1019E000CDF850A0C3F31303DDE9060143F07F53A4
:1019F00043F44013A4F2FF3419460022794BFEF75A
:101A000023FC6BA3D3E90023FEF7D6FD6AA3D3E939
:101A10000023FEF71BFC064620460F46FEF762FD3C
:101A200067A3D3E90023FEF7C7FD02460B46304605
:101A30003946FEF70BFC06460F46FFF76DF800220D
:101A40008046002330463946FFF728F848B1404623
:101A5000FEF748FD32463B46FFF716F808B908F195
:101A6000FF38B8F1160F51D85F4B03EBC803D3E929
:101A70000023DDE90601FFF711F8002848D008F13E
:101A8000FF38002312932D1B6B1E089343BF0023C6
:101A9000C5F1010708930027B8F1000F3ADB089B56
:101AA000CDF8348043440893002309930A9B092B03
:101AB00064D8052BC4BF043B0A930A9BA3F102031D
:101AC000CCBF00240124032B64D8DFE803F0535576
:101AD000362B179C2C4404F23243202BC1BFC3F198
:101AE000400308FA03F804F2124326FA03F3D6BFC0
:101AF000C3F1200348EA030006FA03F0FEF7E2FC14
:101B00000122A1F1F873013C149275E70123B9E7B2
:101B10001290B8E7C8F1000309930023A7EB080768
:101B20000D93C3E701230B930C9B434405930133AF
:101B3000012B0493B8BF012306E001230B930C9BF8
:101B4000002B2ADDCDE90433D9F81C000021042242
:101B500002F114059D4201F1010623D94160484676
:101B600000F0A2FD0090002842D1204B024640F236
:101B7000AF11D0E60023E1E70023D4E701240023DE
:101B8000CDE90A344FF0FF33CDE9043300221223AC
:101B90000C92D9E701230B93F4E70123CDE9043339
:101BA0001A46F5E752003146D2E700BFAFF3008096
:101BB00061436F63A787D23FB3C8608B288AC63F53
:101BC000FB799F501344D33F49930008609300086A
:101BD0000000F07F459300083C930008199300082B
:101BE000189300080000F83FB0940008B99300086B
:101BF000D9F81C30009A1A60049B0E2B00F2A180C9
:101C0000002C00F09E80B8F1000F36DD9E4B08F0EE
:101C10000F0203EBC20318F4807FD3E900AB4FEA55
:101C2000281516D0994BDDE90601D3E90823FEF704
:101C3000EDFDCDE9020105F00F050324934E75B9C2
:101C4000DDE9020152465B46FEF7E0FD82468B4627
:101C50002DE09DED067B02248DED027BEEE7E9078A
:101C600008D550465946D6E90023FEF7A5FC0134B5
:101C700082468B466D100836E1E700F0AD80C8F172
:101C80000005814B814E05F00F0203EBC203D3E93F
:101C90000023DDE90601FEF78FFC2D1182468B46FD
:101CA00000230224002D40F08C80002BCED1129B0B
:101CB000002B00F09580764B002250465946FEF7E7
:101CC000EDFE002800F08C80049B002B00F0888043
:101CD000059B002B35DD08F1FF3302935046594632
:101CE0006C4B0022FEF768FC059E82468B46013451
:101CF0002046FEF7F7FB52465B46FEF75DFC664B5F
:101D00000022FEF7A3FA0446A1F15075CDE9104573
:101D1000002E69D1614B002250465946FEF794FAD5
:101D200022462B4682468B46FEF7D6FE002840F020
:101D30009482224605F1004350465946FEF7AEFE16
:101D400020BB179B002BC0F26081B8F10E0F00F38F
:101D50005C814D4B03EBC803D3E900AB0C9B002B1C
:101D600080F2EE80049B002B00F3EA800ED14B4BF7
:101D7000002250465946FEF71FFC02460B46DDE99D
:101D80000601FEF795FE002800F06A8200252C4629
:101D90000C9B009EDB4302932746002429464846BD
:101DA00000F0C0FC002F00F0C1802CB1BC4203D079
:101DB0002146484600F0B6FC3946484600F0B2FCE1
:101DC000B4E0EA0705D5D6E90023FEF7F5FB0134B8
:101DD00001236D10083665E7DDE906AB022466E7EE
:101DE000049ECDF8088083E7274B03EBC60353E935
:101DF00002010B9B002B55D002460B4600202849C0
:101E0000FEF704FDDDE91023FEF71EFA009BCDE985
:101E100010019D191E4659465046FEF77DFE0446A8
:101E2000FEF760FB02460B4650465946FEF70CFA99
:101E30003034DDE9102306F8014B82468B46FEF76D
:101E40002DFE002872D152465B4611490020FEF754
:101E5000FBF9DDE91023FEF721FE002840F0B680F3
:101E6000AE423FF46EAFDDE910010A4B0022FEF7EF
:101E7000A3FB084BCDE91001002250465946FEF75E
:101E80009BFB82468B46C6E7B09400088894000806
:101E90000000F03F0000244000001C4000001440FF
:101EA0000000E03FDDE91023FEF786FB009B009D6C
:101EB000CDE910013344159359465046FEF72CFEE8
:101EC0000446FEF70FFB30340B4602465946504697
:101ED000FEF7BAF905F8014B159B9D4282468B46E9
:101EE00027D1009B0022DDE910011E44B34BFEF711
:101EF000ADF902460B4650465946FEF7EDFD002867
:101F000064D1DDE91023AD490020FEF79DF90246BA
:101F10000B4650465946FEF7C1FD00283FF411AF6D
:101F2000334616F8012D302AFAD01E46DDF8088017
:101F30003AE0A34B0022FEF73FFB82468B46BBE70D
:101F4000009E52465B46DDE90601FEF75FFCFEF7A8
:101F5000E3FD0746FEF7C6FA52465B46FEF72CFB4A
:101F600002460B46DDE90601FEF76EF907F1300C7B
:101F7000009C06F801CBA6EB040C049C64450246C9
:101F80000B4633D1FEF762F952465B4604460D46D6
:101F9000FEF7A2FDC0B952465B4620462946FEF731
:101FA00073FD08B1FB070FD40199484600F0BAFB56
:101FB0000023139A337008F101031360239B002B55
:101FC0003FF4E2AC1E60DFE4CDF8088033461E46E5
:101FD00013F8012D392A06D1009A9A42F7D1029AB4
:101FE00001320292302201321A709FE7744B0022B4
:101FF000FEF7E2FA02460B46CDE906230022002353
:10200000FEF742FD00289CD0CEE70B9A002A00F094
:10201000E3800A9A012A00F3C280149A002A00F091
:10202000BA8003F23343099D3E46089A01211A44BF
:1020300048461F44089200F029FC044656B1089B0C
:10204000002B07DDB342089AA8BF3346FF1AF61AE1
:10205000D31A0893099B0BB30B9B002B00F0C38092
:10206000002D00F0BD8021462A46484600F0CEFCF7
:10207000019A01460446484600F01EFC019982463A
:10208000484600F04FFB099B5B1B099300F0AE80B4
:10209000099A5146484600F0B9FC01900121484692
:1020A00000F0F4FB0D9B0546002B00F0D7811A468B
:1020B0000146484600F0AAFC0A9B012B054600F3A6
:1020C0009D800E9B002B40F094800F9BC3F3130365
:1020D000002B40F08E800F9B23F000431B0D1B054F
:1020E000002B00F08980089B0133013708934FF0E3
:1020F000010A0D9B002B00F0B7812B6905EB8303D0
:10210000186900F077FBC0F12000089B184410F01C
:102110001F007ED0C0F12003042B72DD089BC0F1AC
:102120001C000344074406440893002F05DD019971
:102130003A46484600F0C6FC0190089B002B05DD9E
:1021400029461A46484600F0BDFC0546129B002B66
:1021500061D00198294600F023FD00285BDA08F1E0
:10216000FF330293019900230A22484600F0FCFA4B
:102170000B9B0190002B00F07981002321460A225D
:10218000484600F0F1FA059B002B044672DC0A9BDE
:10219000022B49DC6EE0169BC3F1360343E7049B38
:1021A0005D1E099BAB420DDB5D1B049B002BBFF644
:1021B0003BAF049BFE1A002337E700BF0000E03F5F
:1021C00000002440099B0D9A0995EB1A1A440D92C0
:1021D000049B3E46002528E7099D0B9C3E462DE7C3
:1021E000DDF804A054E7099A019953E7CDF804A05B
:1021F00054E74FF0000A7CE79A467AE74FF0000A6E
:102200007BE792D0089A1C331A441F441E4408925C
:102210008BE70346F6E7049BCDF80880002B23DC10
:1022200005930A9B022B21DD059B002B7FF4B0ADAB
:1022300029460522484600F097FA014605460198CE
:1022400000F0AEFC00287FF7A3AD009E312306F816
:10225000013B029B013302939EE535462C46F4E791
:10226000049DCDF80880F9E7049B05930B9B002B98
:1022700000F00081002E05DD21463246484600F080
:1022800021FC0446BAF1000F5AD06168484600F0BC
:102290000BFA064628B9824B024640F2EF21FFF7BF
:1022A0003ABB22690232920004F10C010C3000F0BA
:1022B0003DFE01223146484600F004FC0746009BE3
:1022C000009A03F1010B059B134406930E9B03F048
:1022D000010308930BF1FF33294601980493FFF79C
:1022E0007AFA2146059000F1300A019800F058FC76
:1022F0003A4680462946484600F06EFCC2680646CB
:1023000002BB0146019800F04BFC024631464846AC
:10231000099200F007FADDE9092342EA0301089B6C
:1023200019435E4610D1BAF1390F2BD0B8F1000F26
:1023300002DD059B03F1310A049B83F800A02DE523
:102340002746BCE70122E1E7B8F1000F06DB0A9B54
:1023500048EA0308089B58EA030820D1002AEBDD6D
:1023600001990122484600F0ADFB2946019000F09A
:1023700017FC002803DCDFD11AF0010FDCD0BAF122
:10238000390FD6D1049A3923137033461E46013BC8
:1023900016F8012C392A52D001321A70FEE4002AB4
:1023A00007DDBAF1390FEDD0049A0AF10103137079
:1023B000F4E4069B0BF801AC5B452AD0019900239D
:1023C0000A22484600F0D0F9BC4201904FF00003C9
:1023D0004FF00A022146484606D100F0C5F90446EE
:1023E00007460BF1010B75E700F0BEF939460446CC
:1023F00000230A22484600F0B7F90746F1E7059B9B
:102400005E1E002B009BD8BF00265A1C2746164490
:10241000002401990122484600F054FB294601900E
:1024200000F0BEFB0028B0DC02D11AF0010FACD1E5
:1024300033461E4613F8012D302AFAD0AEE4009A36
:102440009A42A3D1029B013302933123AFE7239B2E
:10245000002B7FF494AA134BFFF7B3BA0A9B012B0E
:102460007FF72FAEDDF834A001204EE6059B002B50
:102470007FF7D7AE009E01982946FFF7ACF900F12F
:10248000300A009B06F801ABF21A059B9342B6DDB9
:10249000019900230A22484600F066F90190EAE714
:1024A000B99300083C93000838B50546002941D08F
:1024B00051F8043C0C1F002BB8BFE41800F0E8F8FA
:1024C0001D4A136833B9636014602846BDE838407C
:1024D00000F0E4B8A34208D9206821188B4201BF5C
:1024E00019685B6809182160EDE71A465B680BB153
:1024F000A342FAD911685018A0420BD120680144B8
:10250000501883421160E0D118685B68536008443A
:102510001060DAE702D90C232B60D6E72068211877
:102520008B4204BF19685B68636004BF09182160AF
:102530005460CAE738BD00BF6C030020024B01465F
:10254000186800F025B800BF0C00002070B50F4ED1
:102550000C463168054611B900F0D8FC30602146C0
:10256000284600F0D3FC431C03D14FF0FF34204633
:1025700070BDC41C24F00304A042F8D0211A2846E0
:1025800000F0C4FC0130F2D1EFE700BF6803002087
:102590002DE9F843CD1C25F0030508350C2D38BF77
:1025A0000C25002D064601DBA94204D90C2333601B
:1025B0000020BDE8F883DFF8D48000F069F8D8F88F
:1025C00000301C4644BB29463046FFF7BFFF431C82
:1025D000044658D1D8F800402746002F43D1002C9C
:1025E0004BD023683946304604EB030900F08EFCDB
:1025F000814542D121686D1A29463046FFF7A6FF72
:1026000001303AD023682B442360D8F800305A6850
:1026100062BBC8F800700FE02268521B20D40B2A5E
:1026200017D96119A342256018BF5960636808BFB4
:10263000C8F8001062514B60304600F02FF804F1EA
:102640000B00231D20F00700C21A1CBF1B1AA35049
:10265000AFE76268A3420CBFC8F800205A60EBE7FE
:1026600023466468AEE73C467F68B6E71A465B6877
:10267000A342FBD100235360DEE70C2333603046D6
:1026800000F00CF894E70560D6E700BF6C0300206B
:102690000148FFF79EB800BF640300200148FFF720
:1026A00099B800BF6403002070B5C46905460E46A2
:1026B00084B91020FFF742FF0446E86128B90246BA
:1026C000164B17486B2100F03FFC0023C0E9013393
:1026D0000360C360E36853B921220421284600F057
:1026E00051FCEB69E060DB680BB9002070BD53F86A
:1026F000260030B1026843F826200023C0E90333E6
:10270000F4E7012101FA06F4621D9200284600F068
:1027100039FC0028E9D0C0E90164EEE749930008DC
:10272000CA93000870B5C66905460C4676B91020F4
:10273000FFF704FF0246E86120B9094B09488F21E1
:1027400000F002FCC0E901660660C6603CB1EB69BE
:102750006268DB6853F82210216043F8224070BDA4
:1027600049930008CA9300082DE9F0410D69074616
:102770000C461E4601F1140C0020DCF8003099B222
:1027800002FB01611E0C0B0C02FB063389B2013007
:1027900001EB034185424CF8041B4FEA1346ECDC85
:1027A0000EB3A368AB4219DC616838460131FFF70C
:1027B0007BFF804628B902460C4B0D48BA2100F039
:1027C000C3FB2269023204F10C0192000C3000F0CC
:1027D000ADFB21463846FFF7A5FF444604EB8503D1
:1027E00001355E6125612046BDE8F081B99300089E
:1027F000CA930008B0F5803F034636BF03040020AB
:102800001020B3F1807F3CBF1B020830B3F1805F22
:102810003CBF1B010430B3F1804F3CBF9B00023032
:10282000002B05DB13F0804F00F1010008BF2020D2
:1028300070470368024613F007000BD0D90721D474
:10284000980749BF5B089B08012013605CBF1360B9
:102850000220704799B209B91B0C1020D9B209B9EE
:1028600008301B0A190704BF1B090430990704BF6D
:102870009B080230D90703D45B0800F1010003D0A4
:1028800013607047002070472020704710B50C4639
:102890000121FFF709FF024628B9054B054840F220
:1028A000451100F051FB01234461036110BD00BFDD
:1028B000B9930008CA9300082DE9F04FD1F81090A1
:1028C000D2F810A0D14585B08846144604DB5346A3
:1028D0000C46CA4690469946A36861680AEB090609
:1028E000B342B8BF0131FFF7DFFE30B90246454BB6
:1028F00045484FF4B17100F027FB00F1140505EBDA
:1029000086072B460022BB421FD304F1140C08F1AA
:1029100014010CEB8A0301EB890202921A1B153A8F
:1029200022F0030215349C4288BF00220192029AD1
:1029300003918A420CD8002E03DD57F8043D002B8A
:102940005DD0066105B0BDE8F08F43F8042BDAE7EF
:10295000B1F800A0BAF1000F24D0E046A9464FF02C
:10296000000E58F8042BD9F800401FFA82FBA4B2DD
:102970000AFB0B444FEA124BD9F8002074444FEA8B
:10298000124E0AFB0BE202EB1442A4B244EA0244E8
:10299000434549F8044B4FEA124EE2D8019AAA186F
:1029A000C2F804E0039AB2F802800431B8F1000FD3
:1029B00023D02A68E6469146AA464FF0000BBEF89F
:1029C000004008FB04B404EB194492B242EA04420A
:1029D0004AF8042B5EF8042BDAF800904FEA124B09
:1029E0001FFA89F208FB0B2202EB144273454FEAEF
:1029F000124BE4D8019C2C196260043597E7013E24
:102A000099E700BFB9930008CA9300082DE9F8437D
:102A1000174612F0030280460D4607D0264C013AB5
:102A2000002354F82220FFF79FFE0546BF103FD039
:102A3000D8F81C4094B91020FFF780FD0446C8F870
:102A40001C0030B902461D4B1D4840F2B31100F086
:102A50007BFA0023C0E901330360C360A66846B96E
:102A600040F271214046FFF711FF0023A0600646A7
:102A700003602C464FF0000907F001037F1053B1AB
:102A8000294632464046FFF717FF21460546404695
:102A9000FFF748FE67B1306838B9324631464046E4
:102AA000FFF70AFF3060C0F8009006462C46E3E7C7
:102AB0002846BDE8F88300BF7C94000849930008CD
:102AC000CA9300082DE9F84F0C464968236903EBC7
:102AD0006218A368074615464FEA621A08F1010911
:102AE0004B450BDB3846FFF7DFFD064648B902468B
:102AF000294B2A484FF4EF7100F026FA01315B00B0
:102B0000EEE7002300F1140C00F1100219465345C2
:102B100035DB22692AEAEA7A0CEB8A0C04F1140309
:102B200015F01F0E614603EB82022CD0CEF1200A75
:102B3000002518688B4600FA0EF02843CBF80000F9
:102B400053F8045B9A4201F1040125FA0AF5F0D822
:102B5000131B153B23F0030304F115018A4238BF10
:102B600000239C44CCF8045005B9C1463846C6F849
:102B700010902146FFF7D6FD3046BDE8F88F42F8A9
:102B8000041F0133C3E753F8045B0D609A4201F15F
:102B90000401F8D8E9E700BFB9930008CA93000818
:102BA0000A6903460069801A30B50ED11433143116
:102BB00003EB820401EB820154F8045D51F8042D0B
:102BC000954203D005D24FF0FF3030BDA342F3D37E
:102BD000FBE70120F9E700002DE9F74F8A4606469A
:102BE000114650461446FFF7DBFF051E12D1294659
:102BF0003046FFF759FD024628B9414B40F23721D4
:102C0000404800F0A1F90123C0E90435104603B0A3
:102C1000BDE8F08FBCBF5346A2463046DAF8041038
:102C2000BABF1C4601250025FFF73EFD024618B934
:102C3000334B40F24521E3E7DAF810702669C560AE
:102C40000AF1140904F1140E00F114050AF110033D
:102C500009EB87080EEB86060193AB464FF0000C9C
:102C6000019B5EF8040B53F804AF01931FFA8AF33B
:102C7000194683B2CB1A000C6344C0EB1A4000EB38
:102C800023409BB243EA004376454BF8043B4FEAAE
:102C9000204CE5D8331B153B153423F00303A64223
:102CA00038BF0023E8184B441C1D04302646A5EB12
:102CB0000905464506EB050E0ED308F10301091B75
:102CC00021F003010133984538BF0021014451F838
:102CD000043D9BB1176199E756F8041BE2464FEAA1
:102CE00011491CFA81FC514409EB2C4989B241EA93
:102CF00009414FEA294CCEF80010DAE7013FE6E738
:102D0000B9930008CA9300082DE9F7430F46012143
:102D100059EC108B1646FFF7C7FC044630B9024643
:102D2000234B244840F20F3100F00EF9C9F30A5545
:102D3000C9F313030DB143F480130193B8F10003F9
:102D400023D068460093FFF774FD0099D8B1019A2B
:102D5000C0F1200302FA03F30B43C2406361019206
:102D6000019BA361002B0CBF012202222261A5B1AD
:102D7000A5F2334505443D60C0F135003060204682
:102D800003B0BDE8F0836161EAE701A8FFF751FDF8
:102D9000019B636120300122E8E704EB8203A0F28B
:102DA000324038601869FFF725FDC0EB4210E5E7B7
:102DB000B9930008CA930008B1F90C202DE9F0413D
:102DC000160705460C4651D44B68002B02DC0B6CF1
:102DD000002B49DDE66A002E46D0002312F4805213
:102DE0002F682B6031D0626DA389590705D56368C0
:102DF000D21A636B0BB1236CD21A0023E66A216AE4
:102E00002846B047421CB4F90C3006D129681D2968
:102E100046D8294ACA40D60742D500226260D90462
:102E20002269226004D5421C01D12B6803B9606578
:102E3000616B2F60C1B104F14403994202D028466E
:102E4000FFF732FB002363630EE0216A012328466B
:102E5000B0470246501CC7D12B68002BC4D01D2B95
:102E600001D0162B1AD12F6000201EE00F69002F11
:102E7000FAD093070E6808BF4B690F6018BF002394
:102E8000A6EB07088B60B8F1000FEDDD216AA66A9A
:102E900043463A462846B047002808DCB4F90C30CF
:102EA00043F04003A3814FF0FF30BDE8F0810744B9
:102EB000A8EB0008E7E700BF0100402038B50B6928
:102EC00005460C4613B90025284638BD18B1036ADB
:102ED0000BB9FEF78DFBB4F90C30002BF3D0626E0A
:102EE000D00704D4990502D4A06DFEF772FC2846E1
:102EF0002146FFF761FF636EDA070546E4D4A38934
:102F00009B05E1D4A06DFEF765FCDDE738B5064D05
:102F10000023044608462B6005F090FC431C02D1B8
:102F20002B6803B1236038BD600300200A4491423E
:102F300000F1FF3300D1704710B511F8014B03F8D1
:102F4000014F9142F9D110BD1FB514461A46094BE5
:102F50001B680546D8684CB1074B0091CDE9013498
:102F600006492B4600F042F800F052F8044B1C468C
:102F7000F3E700BF0C0000202E9400083B940008EB
:102F80006994000870B5A1FB025434B92946FFF7D3
:102F9000FFFA064628B9304670BD0C2202600026B2
:102FA000F9E72A462146FEF79DFBF4E782B001B916
:102FB00001A942B14BB113780B601278101E18BFF3
:102FC000012002B070471046FBE76FF00100F8E700
:102FD0000346084641B1FF2A04D98A221A604FF0FD
:102FE000FF3070470A700120704700000EB403B52F
:102FF000014603AB054853F8042B0068019300F029
:1030000037F802B05DF804EB03B070470C00002005
:1030100008B5062000F018FA012005F05DFC936861
:10302000013B002B10B4936008DA9469A34201DBE2
:103030000A2903D15DF8044B00F032B91368581C1B
:103040001060197008465DF8044B7047F8B50646E5
:103050000F461446D518AC4201D1002007E014F801
:10306000011B3A463046FFF7DAFF431CF3D1F8BDA7
:103070002DE9F04F0D469DB014469846064618B10E
:10308000036A0BB9FEF7B4FA6B6ED90705D4AB89A6
:103090009A0502D4A86DFEF79CFBAB891B0701D5EE
:1030A0002B699BB92946304600F038F970B16B6E38
:1030B000DC0704D54FF0FF301DB0BDE8F08FAB89C1
:1030C0009805F7D4A86DFEF785FBF3E70023099375
:1030D00020238DF82930CDF80C803023DFF8AC8127
:1030E0008DF82A304FF0010923469A4613F8012B38
:1030F0000AB1252AF9D1BAEB040B0BD05B46224664
:1031000029463046FFF7A2FF013000F0A780099A58
:103110005A4409929AF80030002B00F09F80002357
:103120004FF0FF32CDE905230AF1010A049307931A
:103130008DF853301A935446052214F8011B534856
:10314000FDF726F8049AD8B9D10644BF20238DF89C
:103150005330130744BF2B238DF853309AF80030B7
:103160002A2B15D0079A544600204FF00A0C21460E
:1031700011F8013B303B092B4BD9B0B1079214E059
:10318000A0EB080309FA03F313430493A246D2E722
:10319000039B191D1B680391002BBBBF5B4242F0D0
:1031A000020207930793B8BF049223782E2B0AD10B
:1031B00063782A2B32D1039B1A1D1B68039243EAC2
:1031C000E37302340593DFF8D4A02178032250463C
:1031D000FCF7DEFF38B1049BA0EB0A0040228240DE
:1031E00013430134049314F8011B29488DF8281067
:1031F0000622FCF7CDFF00283FD0264B1BBB039BCC
:10320000073323F0070308330393099B3B440993D7
:103210006AE70CFB02320C460120A8E700230134C8
:10322000059319464FF00A0C204610F8012B303A4E
:10323000092A03D9002BC6D00591C4E70CFB012154
:1032400004460123F0E703AB00932A46124B04A97E
:103250003046FDF789FD0746781CD6D16B6ED9073D
:1032600005D4AB899A0502D4A86DFEF7B3FAAB89F1
:103270005B063FF51FAF09981EE703AB00932A4694
:10328000054B04A93046FEF705F8E4E76A94000808
:1032900074940008690D00084D300008709400080F
:1032A000F8B50E461446054618B1036A0BB9FEF789
:1032B0009FF9A369A360A3891A0701D5236943B9BC
:1032C0002146284600F02AF818B14FF0FF3738465B
:1032D000F8BD23682269981A6369F6B283423746BB
:1032E00005DC21462846FFF7E9FD0028EDD1A3685B
:1032F000013BA36023685A1C22601E706269431C54
:103300009A4204D0A389DB07E1D50A2EDFD12146FA
:103310002846FFF7D3FD0028D9D0D6E738B5284B8B
:10332000054618680C4618B1036A0BB9FEF760F938
:10333000B4F90C301A0721D4D80607D409222A6020
:1033400043F04003A3814FF0FF3030E0590712D51E
:10335000616B41B104F14403994202D02846FFF762
:10336000A3F8002363630022B4F90C306260226981
:10337000226023F0240343F00803A38122693AB9B1
:103380009A0501D5180603D52146284600F0CAF84B
:10339000B4F90C3013F001020AD00022A260626975
:1033A0005242A261226942B913F08000C8D138BDEF
:1033B000990758BF6269A260F4E70020F7E700BFF1
:1033C0000C000020884210B501EB020402D98442AF
:1033D000234607D8431EA14207D011F8012B03F85A
:1033E000012FF8E70244824200D110BD13F8011DFD
:1033F00002F8011DF7E71F2938B505460C4604D928
:10340000162303604FF0FF3038BDC26B12B152F883
:1034100021304BB9284600F031F8224601462846B3
:10342000BDE8384000F018B8012B0AD0591C03D170
:10343000162303600120E7E7002142F8241020460C
:1034400098470020E0E70000024B01461868FFF7AC
:10345000D2BF00BF0C00002038B5074D0023044642
:10346000084611462B6005F027FA431C02D12B6851
:1034700003B1236038BD00BF6003002005F014BA1B
:103480002DE9F041074614460D4621B9BDE8F0414B
:103490001146FFF77DB82AB9FFF706F825462846FA
:1034A000BDE8F08100F09AF88442064602D8B4EBF9
:1034B000500FF4D821463846FFF76AF8804608B91D
:1034C0004546ECE7B4422246294628BF3246FFF77C
:1034D0002DFD29463846FEF7E7FFF1E770B50C46AB
:1034E000B1F90E10002996B015461E460ADAA189D8
:1034F00011F0800113D14FF48062002031602A6006
:1035000016B070BD6A4600F047F80028EFDB01995D
:1035100001F47041A1F5005359425941EBE70021F4
:103520004022EAE78B8973B59E0705460C4607D50E
:1035300004F14703236023610123636102B070BD7E
:1035400001AB6A46FFF7CAFF009E28463146FFF7E7
:103550001FF8B4F90C3038B99A05EFD423F00303FF
:1035600043F00203A381E3E743F08003A381019BBF
:103570002060C4E90406002BE0D0B4F90E10284600
:1035800000F01CF80028D9D0A38923F0030343F0EE
:103590000103A381D2E7000038B5074D002304469C
:1035A000084611462B6005F0CBF9431C02D12B686D
:1035B00003B1236038BD00BF6003002038B5064D5D
:1035C0000023044608462B6005F0CAF9431C02D1CB
:1035D0002B6803B1236038BD6003002051F8043C20
:1035E000181F002BBCBF0B58C018704780B582B0A5
:1035F00000AF0346FB71FB79072B00F2AB8001A201
:1036000052F823F0253600084B36000871360008C2
:1036100097360008BD360008E33600080937000871
:103620002F370008002240214D4803F047FA0022BE
:1036300010214C4803F042FA002201214A4803F0CD
:103640003DFA4A4B00221A7085E00122402144488D
:1036500003F034FA00221021424803F02FFA00222E
:103660000121414803F02AFA404B01221A7072E00E
:10367000002240213A4803F021FA01221021394862
:1036800003F01CFA00220121374803F017FA374BE8
:1036900002221A705FE001224021314803F00EFA45
:1036A000012210212F4803F009FA002201212E489F
:1036B00003F004FA2D4B03221A704CE00022402143
:1036C000274803F0FBF900221021264803F0F6F901
:1036D00001220121244803F0F1F9244B04221A703D
:1036E00039E0012240211E4803F0E8F900221021B0
:1036F0001C4803F0E3F9012201211B4803F0DEF925
:103700001A4B05221A7026E000224021144803F0CB
:10371000D5F901221021134803F0D0F9012201212B
:10372000114803F0CBF9114B06221A7013E0012265
:1037300040210B4803F0C2F901221021094803F08F
:10374000BDF901220121084803F0B8F9074B07220F
:103750001A7000E000BF00BF0837BD4680BD00BF43
:1037600000000240000802400004024072030020F2
:1037700080B582B000AF0346FB71FB79072B00F2E6
:10378000AB8001A252F823F0A9370008CF37000818
:10379000F53700081B380008413800086738000872
:1037A0008D380008B338000800224FF400514D480E
:1037B00003F084F900224FF480514A4803F07EF967
:1037C00000224FF48061474803F078F985E0012238
:1037D0004FF40051434803F071F900224FF4805137
:1037E000404803F06BF900224FF480613D4803F03C
:1037F00065F972E000224FF400513A4803F05EF997
:1038000000224FF48051374803F058F900224FF45A
:103810008061344803F052F95FE000224FF4005118
:10382000304803F04BF900224FF480512D4803F04B
:1038300045F900224FF480612A4803F03FF94CE03B
:1038400000224FF40051274803F038F900224FF4CA
:103850008051244803F032F900224FF4806121485E
:1038600003F02CF939E000224FF400511D4803F019
:1038700025F901224FF480511A4803F01FF9012263
:103880004FF48061174803F019F926E000224FF445
:103890000051144803F012F900224FF480511148EE
:1038A00003F00CF900224FF480610E4803F006F992
:1038B00013E000224FF400510A4803F0FFF8002201
:1038C0004FF48051074803F0F9F800224FF480616B
:1038D000044803F0F3F800E000BF00BF0837BD461E
:1038E00080BD00BF0004024080B582B000AF034637
:1038F000FB71FB79072B4BD801A252F823F000BFD4
:10390000213900082F3900083D3900084B390008DB
:1039100059390008673900087539000883390008EB
:103920000020FFF763FE0020FFF722FF31E00120B7
:10393000FFF75CFE0120FFF71BFF2AE00220FFF7E4
:1039400055FE0220FFF714FF23E00320FFF74EFE91
:103950000320FFF70DFF1CE00420FFF747FE0420C3
:10396000FFF706FF15E00520FFF740FE0520FFF7F3
:10397000FFFE0EE00620FFF739FE0620FFF7F8FEF7
:1039800007E00720FFF732FE0720FFF7F1FE00E017
:1039900000BF00BF0837BD4680BD00BF80B582B004
:1039A00000AF0346FB71FB79642B2CD0642B3DDC0C
:1039B000012B02D00A2B13D038E0002204211E482C
:1039C00003F07CF8002210211B4803F077F8012255
:1039D0000121194803F072F8184B01221A7026E0F1
:1039E00000220121144803F069F800221021124836
:1039F00003F064F8012204210F4803F05FF80F4B35
:103A00000A221A7013E0002201210B4803F056F835
:103A100000220421084803F051F801221021064831
:103A200003F04CF8054B64221A7000E000BF00BFA1
:103A30000837BD4680BD00BF000002407103002072
:103A400080B582B000AF0346FB71FB79642B2ED0AA
:103A5000642B40DC002B02D0232B14D03BE0204B06
:103A600000221A70002204211E4803F027F80022C9
:103A700002211C4803F022F800224FF400611A488A
:103A800003F01CF827E0164B23221A7001220421B0
:103A9000144803F013F801220221124803F00EF833
:103AA00001224FF40061104803F008F813E00C4BBA
:103AB00064221A70012204210A4802F0FFFF00224A
:103AC0000221084802F0FAFF01224FF40061064883
:103AD00002F0F4FF00BF00BF0837BD4680BD00BF45
:103AE00070030020000402400014024080B582B040
:103AF00000AF78607B68DB781846FFF7F5FE7B68DF
:103B00005B781846FFF74AFF7B681B781846FFF77B
:103B100097FF00BF0837BD4680BD000080B489B064
:103B200000AFF860B9607A60154B7B610023FB61E0
:103B30000023BB6118E0FB690133FB61FA697B6913
:103B40009A4202D34FF0FF3313E00E4B1B6803F091
:103B50004003002BEFD0BB69BA6813441A78094BB5
:103B60005A60BB690133BB61BA697B689A42ECDB7E
:103B70007B6818462437BD465DF8047B704700BF5C
:103B8000A08601000010014080B582B000AF7860CF
:103B90007B6858687B681B890122194602F08EFFFA
:103BA00000BF0837BD4680BD80B582B000AF7860E9
:103BB0007B6858687B681B890022194602F07EFFEB
:103BC00000BF0837BD4680BD80B582B000AF7860C9
:103BD00000BF7B68DA687B681B8A1946104602F0D2
:103BE00055FF0346012BF4D000BF00BF0837BD4688
:103BF00080BD80B582B000AF03463960FB713B6881
:103C00001868F91D4FF0FF33012203F05AFA00BF84
:103C10000837BD4680BD000080B586B000AFB960F2
:103C20007B600346FB731346BB7300224FF40041D5
:103C3000164802F043FFFB7B43F05003DBB2796888
:103C40001846FFF7D6FFBB7B013BDBB2796818460D
:103C5000FFF7CFFF0023FB750AE0FB7DBA68134432
:103C60001B7879681846FFF7C4FFFB7D0133FB75AD
:103C7000FA7DBB7B9A42F0D301224FF40041034806
:103C800002F01CFF00BF1837BD4680BD0000024097
:103C900080B582B000AF786039603B6818684FF03B
:103CA000FF330122796803F050FB00BF0837BD469F
:103CB00080BD000080B586B000AFB9607B60034670
:103CC000FB731346BB7300224FF40041174802F008
:103CD000F5FEFB7B43F01003DBB279681846FFF773
:103CE00088FFBB7B013BDBB279681846FFF781FF99
:103CF0000A2000F08FF90023FB7509E0BB685A1C0D
:103D0000BA6079681846FFF7C3FFFB7D0133FB7586
:103D1000FA7DBB7B9A42F1D301224FF40041034864
:103D200002F0CCFE00BF1837BD4680BD0000024047
:103D300080B582B000AF03463960FB713868FFF789
:103D400033FFFB7939681846FFF753FF3868FFF7F0
:103D50001BFF00BF0837BD4680BD80B582B000AFF5
:103D600078607968FE20FFF7E3FF0A2000F052F93F
:103D70007868FFF729FF00BF0837BD4680BD80B5D2
:103D800084B000AF03463A60FB710B46BB7197F9F4
:103D900007301B015AB297F9063013435BB2DBB20E
:103DA000FB7307F10F013B6801220120FFF734FF8D
:103DB00000BF1037BD4680BD80B584B000AF03465C
:103DC0003A60FB710B46BB71B979FB793A681846CA
:103DD000FFF7D5FF39680320FFF7AAFF072000F09F
:103DE00019F93868FFF7E0FE3B68186807F1080129
:103DF0000A23032203F0A9FA3868FFF7C5FE3B7ACD
:103E00001A047B7A1B021343BA7A1343FB60FB68E4
:103E100003F40003002B02D04FF07F4200E00022A9
:103E2000FB681343FB60FB6818461037BD4680BD36
:103E3000B0B586B000AFF86087ED000B0B46FB72A3
:103E4000D7E9000102460B46FCF700FA02460B4692
:103E500014461D46FB7A1846FCF744FB02460B4607
:103E600020462946FCF7D2FC02460B4614461D4666
:103E7000F868FCF737FB4FF000020C4BFCF7C6FC70
:103E800002460B4620462946FCF796FB02460B46A7
:103E9000C7E90423D7E9042343EC172BB0EE470A04
:103EA000F0EE670A1837BD46B0BD00BF00006041A4
:103EB00080B584B002AF00237B6000233B602F4BB2
:103EC0001A782E4B5B781343DAB22C4B9B78134352
:103ED000DBB23B71294BDB787B71284B1A79274B7E
:103EE0005B791343DAB2254B9B791343DBB2BB7189
:103EF000224BDB79FB71172002F061FF2048FFF7AE
:103F00002CFF39461E4B04220020FFF7D3FE3B78DE
:103F100019467B781A46BB781846FB78009303460F
:103F2000184804F0DBFE391D154B04220020FFF772
:103F300073FE1348FFF748FE3946114B0422002058
:103F4000FFF7B8FE3B7819467B781A46BB781846CF
:103F5000FB78009303460C4804F0C0FE3B78362BF8
:103F600004D10A4804F022FF012303E0084804F0CA
:103F70001DFF002318460837BD4680BDE80100201C
:103F8000C8010020109100082C91000848910008F9
:103F90005C91000880B500AF4021194802F076FD21
:103FA0000346002B2AD1174A08210020FFF704FFFF
:103FB00003461A46144B1A60134B1B681846134BE2
:103FC00093ED027B114B9B791A4601239340DBB2A0
:103FD0001946B0EE470AF0EE670AFFF729FFB0EE88
:103FE000407AF0EE607A084B83ED027B064B19684D
:103FF000054BD3E90223064804F070FE00BF80BDE4
:1040000000040240C801002078030020E8010020DD
:104010007491000880B584B000AF0346FB80FB8834
:10402000C3F1FF2303F57F03FA33FB810B4803F051
:10403000E1FD0A4B1B68FA895A6203E0074B1B68D3
:104040005B6AFB81FB894FF6F9729342F6D903480C
:1040500003F038FE00BF1037BD4680BD9404002039
:1040600080B500AF112000F0F5F8782002F034FFA1
:10407000362000F0EFF8482000F0D8F83A2000F0A1
:10408000E9F8552000F0D2F8F02000F0E3F8C32062
:1040900000F0CCF8F02000F0DDF8962000F0C6F833
:1040A000B42000F0D7F8012000F0C0F8B62000F0EE
:1040B000D1F80A2000F0BAF8A22000F0B7F8B72033
:1040C00000F0C8F8C62000F0B1F8B92000F0C2F83E
:1040D000022000F0ABF8E02000F0A8F8C02000F0CB
:1040E000B9F8802000F0A2F8162000F09FF8C12057
:1040F00000F0B0F8192000F099F8C22000F0AAF8FA
:10410000A72000F093F8C52000F0A4F8162000F0D6
:104110008DF8E82000F09EF8402000F087F88A2013
:1041200000F084F8002000F081F8002000F07EF814
:10413000292000F07BF8192000F078F8A52000F085
:1041400075F8332000F072F8E02000F083F8F020DA
:1041500000F06CF8072000F069F80D2000F066F818
:10416000042000F063F8052000F060F8142000F04F
:104170005DF8362000F05AF8542000F057F84C2033
:1041800000F054F8382000F051F8132000F04EF8F9
:10419000142000F04BF82E2000F048F8342000F0F6
:1041A00045F8E12000F056F8F02000F03FF810202C
:1041B00000F03CF8142000F039F80E2000F036F83A
:1041C0000C2000F033F8082000F030F8352000F023
:1041D0002DF8442000F02AF84C2000F027F8262083
:1041E00000F024F8102000F021F8122000F01EF852
:1041F0002C2000F01BF8322000F018F8F02000F01E
:1042000029F83C2000F012F8F02000F023F8692093
:1042100000F00CF8782002F05FFE212000F01AF880
:10422000292000F017F800BF80BD000080B483B0E3
:1042300000AF0346FB80FB889BB2FB80044BFA88EF
:1042400092B25A8000BF0C37BD465DF8047B7047C0
:104250007E00006C80B483B000AF0346FB80FB8817
:104260009BB2FB80044BFA8892B21A8000BF0C37D5
:10427000BD465DF8047B70477E00006C80B483B05F
:1042800000AF03460A46FB801346BB80054AFB8805
:104290001380044ABB88538000BF0C37BD465DF8CD
:1042A000047B70477E00006C80B483B000AF786000
:1042B00000BF7B685A1E7A60002BFAD100BF00BF96
:1042C0000C37BD465DF8047B7047000080B582B0B6
:1042D00000AF0220FFF7E8FF044B5B889BB2FB8036
:1042E000FB889BB218460837BD4680BD7E00006C37
:1042F00080B400AF044B054A12891A8000BFBD4646
:104300005DF8047B704700BF7E00006C88030020CE
:1043100080B582B000AF03460A46FB801346BB80DF
:10432000124B5B891846FFF795FFFB881B0A9BB26F
:104330001846FFF77BFFFB88DBB29BB21846FFF7FE
:1043400075FF0A4B9B891846FFF784FFBB881B0A41
:104350009BB21846FFF76AFFBB88DBB29BB21846D8
:10436000FFF764FF00BF0837BD4680BD880300200B
:1043700080B584B000AF0346FB710023FB810023AE
:10438000BB81754B9B79012B05D1734B9B8841F603
:104390006312934209D1704B9B79002B34D16E4B41
:1043A0009B8841F6631293422ED1FB79072B2BD8C1
:1043B00001A252F823F000BFD9430008DF430008F0
:1043C000E5430008EB430008F1430008F743000809
:1043D000FD430008034400080623FB7114E0072393
:1043E000FB7111E00423FB710EE00523FB710BE070
:1043F0000123FB7108E00023FB7105E00323FB713F
:1044000002E00223FB7100BFFB79072B35D801A224
:1044100052F823F07B440008354400083F4400086C
:1044200049440008534400085D44000867440008FC
:1044300071440008FB8943F08003FB811DE0FB8988
:1044400043F04003FB8118E0FB8943F0C003FB818C
:1044500013E0FB8943F02003FB810EE0FB8943F06E
:104460006003FB8109E0FB8943F0A003FB8104E0CA
:10447000FB8943F0E003FB8100BF3623BB81FB894E
:1044800043F00803FB81FA89BB8911461846FFF700
:10449000F5FEFB8903F02003002B10D02E4B1A8869
:1044A0002D4B5B889A421AD22B4B1B887B812A4B5F
:1044B0005A88294B1A80284A7B8953800FE0264B63
:1044C0001A88254B5B889A4209D9234B1B887B812C
:1044D000214B5A88204B1A801F4A7B8953801E4BE0
:1044E0005B891846FFF7B6FE0020FFF79FFE00200D
:1044F000FFF79CFE184B1B88013B1B129BB2184612
:10450000FFF794FE144B1B88013B9BB2DBB29BB2BE
:104510001846FFF78BFE104B9B891846FFF79AFE53
:104520000020FFF783FE0020FFF780FE0A4B5B8828
:10453000013B1B129BB21846FFF778FE064B5B88C7
:10454000013B9BB2DBB29BB21846FFF76FFE00BF88
:104550001037BD4680BD00BF8803002080B582B003
:1045600000AF0346FB800B46BB8013467B80BA88B6
:10457000FB8811461846FFF7CBFEFFF7B9FE034A4A
:104580007B88538000BF0837BD4680BD7E00006C2D
:1045900080B582B000AF0346FB710F4AFB7993717F
:1045A0000D4B4FF4F0721A800B4B4FF4A0725A80EF
:1045B000FB79002B08D0084B2C221A81064B2A22AB
:1045C0005A81054B2B229A81FB791846FFF7D0FEC2
:1045D00000BF0837BD4680BD8803002080B500AF0E
:1045E000322002F079FCD320FFF734FEFFF76EFE95
:1045F00003461A46134B9A80FFF768FE03461A4695
:10460000104B9A80FFF762FE03461A460D4B9A80C4
:104610000C4B9B881B029AB20A4B9A80FFF756FEFE
:1046200003461A46074B9B8813439AB2054B9A8060
:10463000FFF716FD0620FFF7ABFF002000F004F89F
:1046400000BF80BD8803002080B584B000AF034662
:10465000FB800023FB60114B1B88BB600F4B5B880A
:104660001A46BB6802FB03F3BB6000210020FFF782
:104670004FFEFFF73DFE0023FB6005E0084AFB8884
:104680005380FB680133FB60FA68BB689A42F5D33C
:1046900000BF00BF1037BD4680BD00BF88030020AB
:1046A0007E00006C90B587B000AF04460846114606
:1046B0001A462346FB800346BB800B46FB7013461D
:1046C000BB70BB88FB8100237B7300233B61BB78FD
:1046D000DB08DBB21A46BB7803F00703DBB2002B22
:1046E00014BF01230023DBB21344DAB2BB785B08AA
:1046F000DBB212FB03F37B73FB78203BFB70BB78D0
:104700000C3B142B00F2988001A252F823F000BF5A
:10471000654700083948000839480008394800084A
:104720007747000839480008394800083948000828
:104730003948000839480008394800083948000855
:1047400083470008394800083948000839480008FC
:104750003948000839480008394800083948000835
:1047600095470008FA7813465B0013449B00354ACE
:1047700013443B6114E0FB781B01334A13443B6153
:104780000EE0FA781346DB0013449B002F4A1344D3
:104790003B6105E0FB789B012D4A13443B6100BF60
:1047A00000237B7543E07B7D3A6913441B78FB75DE
:1047B0000023BB7533E097F91730002B06DABA8D6A
:1047C000B988FB881846FFF7C9FE09E097F828303A
:1047D000002B05D13A8EB988FB881846FFF7BEFE3C
:1047E000FB7D5B00FB75BB880133BB80194B5B888D
:1047F000BA889A4222D2BA88FB89D21ABB789A42E6
:104800000AD1FB89BB80FB880133FB80114B1B88DD
:10481000FA889A4207D312E0BB7D0133BB75BB7D9A
:10482000072BC8D900E000BF7B7D01337B757A7D03
:104830007B7B9A42B7D302E000BF00E000BF1C3789
:10484000BD4690BD7C960008F09A0008E0A00008E4
:104850003CAE00088803002090B589B004AF7B60AF
:104860000346FB810B46BB811346FB7217E07B6856
:104870001A78FC7AB989F889BB8C02933B8C019336
:10488000002300932346FFF70DFFFB7A5B08DBB2A2
:104890001A46FB891344FB817B6801337B607B688C
:1048A0001B787E2B03D87B681B781F2BDFD800BFBB
:1048B0001437BD4690BDB0B5C6B002AF05460C4634
:1048C0001046194607F58873A3F585732A461A80A2
:1048D00007F58873A3F5867322461A8007F5887357
:1048E000A3F20D1302461A7007F58873A3F58873B7
:1048F0000A461A8007F59473C7F80C3107F10C00CB
:10490000D7F80C31D7F824214FF4807104F084FAE1
:1049100007F10C0407F58873A3F20D131A7807F555
:104920008873A3F58673198807F58873A3F58573D3
:104930001888B7F82031019307F58873A3F58873B9
:104940001B8800932346FFF787FF00BF07F5887792
:10495000BD46B0BD80B483B000AF0346FB71FB79A8
:10496000012202FA03F31AB2064B1B889BB21BB258
:1049700013401BB29BB218460C37BD465DF8047B52
:10498000704700BF9603002080B483B000AF034699
:10499000FB71FB79012202FA03F39AB2064B1B88E2
:1049A0009BB213439AB2044B1A8000BF0C37BD462A
:1049B0005DF8047B704700BF9603002080B483B08D
:1049C00000AF0346FB71FB79012202FA03F39BB2AD
:1049D000DB439AB2064B1B889BB213409AB2044B3E
:1049E0001A8000BF0C37BD465DF8047B704700BFDE
:1049F0009603002080B500AF164B1B680133154AA3
:104A00001360154B00221A701CE0124B1B68124AEF
:104A10001278D2B21146114A52F82120B3FBF2F1BA
:104A200001FB02F29B1A002B05D10B4B1B78DBB26A
:104A30001846FFF7A9FF084B1B78DBB20133DAB247
:104A4000054B1A70044B1B78DBB2082BDDD900BF75
:104A500000BF80BD980300209C030020FCC5000817
:104A600080B500AF002220210A4802F027F800227A
:104A70008021084802F022F800224021064802F076
:104A80001DF800224FF48071034802F017F800BFB0
:104A900080BD00BF001802400008024080B582B00F
:104AA00000AF0346FB71FB79013B032B62D801A2E7
:104AB00052F823F0C54A0008F14A00081D4B0008CF
:104AC000494B0008002280212E4801F0F7FF002208
:104AD00040212D4801F0F2FF00224FF480712A4856
:104AE00001F0ECFF01222021264801F0E7FF44E01D
:104AF00000222021234801F0E1FF0022402122482A
:104B000001F0DCFF00224FF480711F4801F0D6FF56
:104B1000012280211B4801F0D1FF2EE0002220213C
:104B2000184801F0CBFF00228021164801F0C6FF93
:104B300000224FF48071144801F0C0FF012240218F
:104B4000114801F0BBFF18E0002220210D4801F0C0
:104B5000B5FF002280210B4801F0B0FF0022402168
:104B6000094801F0ABFF01224FF48071064801F0C3
:104B7000A5FF02E0FFF774FF00BF00BF0837BD4686
:104B800080BD00BF001802400008024080B500AFA1
:104B90004021154801F07AFF0346002B01D0402345
:104BA0001FE04FF48071104801F070FF0346002BA6
:104BB00002D04FF4807314E080210C4801F066FFAE
:104BC0000346002B01D080230BE04FF4007107480F
:104BD00001F05CFF0346002B02D04FF4007300E0AD
:104BE0000023184680BD00BF0018024000080240A4
:104BF00080B584B000AF0346FB710023BB81002366
:104C0000FB73FFF72DFFFB79013B032B00F2BD8007
:104C100001A252F823F000BF294C0008834C000881
:104C2000DB4C0008334D00080120FFF737FFFFF78A
:104C3000ADFF0346002B00F0AA80FFF7A7FF034655
:104C4000BB81BB89B3F5007F16D0B3F5007F16DCBE
:104C5000B3F5807F0AD0B3F5807F10DC402B02D003
:104C6000802B06D00BE00123FB7309E00223FB73CA
:104C700006E00323FB7303E00423FB7300E000BFA3
:104C800085E00220FFF70AFFFFF780FF0346002BB5
:104C90007FD0FFF77BFF0346BB81BB89B3F5007F65
:104CA00016D0B3F5007F16DCB3F5807F0AD0B3F5DC
:104CB000807F10DC402B02D0802B06D00BE0052338
:104CC000FB7309E00623FB7306E00723FB7303E095
:104CD0000823FB7300E000BF5BE00320FFF7DEFE6C
:104CE000FFF754FF0346002B55D0FFF74FFF034655
:104CF000BB81BB89B3F5007F16D0B3F5007F16DC0E
:104D0000B3F5807F0AD0B3F5807F10DC402B02D052
:104D1000802B06D00BE00923FB7309E00A23FB7309
:104D200006E00B23FB7303E00C23FB7300E000BFE2
:104D300031E00420FFF7B2FEFFF728FF0346002B07
:104D40002BD0FFF723FF0346BB81BB89B3F5007F60
:104D500016D0B3F5007F16DCB3F5807F0AD0B3F52B
:104D6000807F10DC402B02D0802B06D00BE00D237F
:104D7000FB7309E00E23FB7306E00F23FB7303E0D4
:104D80001023FB7300E000BF07E000BF06E000BF98
:104D900004E000BF02E000BF00E000BFFB7B18465C
:104DA0001037BD4680BD00BF80B500AFFFF758FE8D
:104DB000634B1B78032B00F2B58001A252F823F05D
:104DC000D14D00082D4E0008B54E0008ED4E0008EC
:104DD0000120FFF763FEFFF7D9FE0346002B02D048
:104DE000574B01221A700220FFF758FEFFF7CEFE44
:104DF0000346002B02D0524B01221A700320FFF70A
:104E00004DFEFFF7C3FE0346002B02D04C4B0122A0
:104E10001A700420FFF742FEFFF7B8FE0346002B8E
:104E200000F08480464B01221A707FE00120FFF7DA
:104E3000DFFE0346002B0AD00120FFF7D9FE034610
:104E40001A46404B1A703E4B02221A7070E0022044
:104E5000FFF7CEFE0346002B0AD00220FFF7C8FE64
:104E600003461A46374B1A70354B02221A705FE020
:104E70000320FFF7BDFE0346002B0AD00320FFF7F7
:104E8000B7FE03461A462F4B1A702D4B02221A709A
:104E90004EE00420FFF7ACFE0346002B48D0042070
:104EA000FFF7A6FE03461A46264B1A70244B022231
:104EB0001A703DE00120FFF79BFE0346002B39D11D
:104EC0000220FFF795FE0346002B33D10320FFF7A6
:104ED0008FFE0346002B2DD10420FFF789FE0346E9
:104EE000002B27D1164B03221A7023E00120FFF775
:104EF0007FFE0346002B1FD10220FFF779FE0346F9
:104F0000002B19D10320FFF773FE0346002B13D1AA
:104F10000420FFF76DFE0346002B0DD1084B002245
:104F20001A7009E0064B00221A7006E000BF04E088
:104F300000BF02E000BF00E000BF00BF80BD00BFB7
:104F40009E0300209D03002080B584B004AF01F0D3
:104F500051FF00F08BF900F00BFA00F0BBFD00F000
:104F600093FC00F045FD00F00DFD00F099FBA94811
:104F7000FEF7BCFDFEF79CFFFFF730FBA64802F0F2
:104F8000C9FEA64803F012FFA54B1B78013B0F2B6F
:104F900000F2F58001A252F823F000BF275100086B
:104FA00045510008635100087F510008CD500008AA
:104FB000EB500008095100087F51000855500008C7
:104FC0007350000891500008AF500008DD4F0008F2
:104FD000FB4F000819500008375000088D4B002285
:104FE000DA70904B0193002300934FF6E073202278
:104FF00020210020FFF75FFCC2E0864B0122DA701F
:10500000894B0193002300934FF6E0732022202167
:105010000020FFF750FCB3E07E4B0222DA70834B96
:105020000193002300934FF6E073202220210020FB
:10503000FFF741FCA4E0774B0322DA707C4B01932D
:10504000002300934FF6E073202220210020FFF779
:1050500032FC95E06F4B0422DA70764B019300230B
:1050600000934FF6E073202220210020FFF723FC5D
:1050700086E0684B0522DA706F4B019300230093A2
:105080004FF6E073202220210020FFF714FC77E088
:10509000604B0622DA70694B0193002300934FF6B0
:1050A000E073202220210020FFF705FC68E0594B27
:1050B0000722DA70624B0193002300934FF6E073EE
:1050C000202220210020FFF7F6FB59E0514B01225E
:1050D0005A705C4B0193002300934FF6E07320223B
:1050E00040210020FFF7E7FB4AE04A4B0A225A70B2
:1050F000554B0193002300934FF6E073202240218B
:105100000020FFF7D8FB3BE0424B64225A704F4B24
:105110000193002300934FF6E073202240210020EA
:10512000FFF7C9FB2CE03B4B00221A70484B019360
:10513000002300934FF6E073202260210020FFF748
:10514000BAFB1DE0334B23221A70424B019300231C
:1051500000934FF6E073202260210020FFF7ABFBA5
:105160000EE02C4B64221A703B4B019300230093FA
:105170004FF6E073202260210020FFF79CFB00BF68
:10518000244BDB781846FEF7AFFB224B5B781846C2
:10519000FEF704FC1F4B1B781846FEF751FCFEF788
:1051A000F9FE0120FFF7D6FB0346002B01D0FFF7E5
:1051B000FBFD0620FFF7CEFB0346002B19D006208F
:1051C000FFF7FCFB254BD3E902014FF00002244B13
:1051D000FBF7F2F902460B46CDE90223214B01937E
:1051E000002300934FF6E073202200210020FFF7F8
:1051F00062FB0820FFF7AEFB0346002B3FF4C4AE72
:105200000820FFF7DBFB4FF40061174801F06FFC4B
:10521000BAE600BFF80100204C040020A09100086D
:105220009D030020B4910008C8910008DC9100089B
:10523000F091000804920008189200082C920008CF
:10524000409200085492000874920008949200085A
:10525000B4920008C8920008DC920008780300208D
:1052600000408F40F09200080000024080B594B0EA
:1052700000AF07F12003302200211846FCF732FA74
:1052800007F10C0300221A605A609A60DA601A6112
:105290000023BB60284B1B6C274A43F080531364E8
:1052A000254B1B6C03F08053BB60BB6800237B6005
:1052B000224B1B68214A43F4804313601F4B1B6839
:1052C00003F480437B607B6802233B620123FB6223
:1052D00010233B630223BB630023FB6308233B646F
:1052E000A8237B640223BB640423FB6407F120032F
:1052F000184600F099FD0346002B01D000F032F86B
:105300000F23FB6002233B6100237B614FF4A0531A
:10531000BB614FF48053FB6107F10C030521184674
:1053200000F0FAFF0346002B01D000F01BF800BF8D
:105330005037BD4680BD00BF0038024000700040BD
:1053400080B582B000AF78607B681B68044A9342E6
:1053500001D1FFF74FFB00BF0837BD4680BD00BF3E
:105360000010004080B400AF72B600BF00BFFDE780
:1053700080B58EB000AF07F1240300221A605A6096
:105380009A60DA601A6100233B62B44B1B6BB34A2C
:1053900043F004031363B14B1B6B03F004033B6244
:1053A0003B6A0023FB61AD4B1B6BAC4A43F08003AF
:1053B0001363AA4B1B6B03F08003FB61FB690023A3
:1053C000BB61A64B1B6BA54A43F001031363A34BC0
:1053D0001B6B03F00103BB61BB6900237B619F4B27
:1053E0001B6B9E4A43F0020313639C4B1B6B03F041
:1053F00002037B617B6900233B61984B1B6B974ADF
:1054000043F020031363954B1B6B03F020033B61B8
:105410003B690023FB60914B1B6B904A43F04003B8
:1054200013638E4B1B6B03F04003FB60FB68002390
:10543000BB608A4B1B6B894A43F010031363874B95
:105440001B6B03F01003BB60BB6800237B60834BC6
:105450001B6B824A43F008031363804B1B6B03F002
:1054600008037B607B68012201217D4801F026FB57
:10547000002255217B4801F021FB00224FF4A87146
:10548000774801F01BFB002248F20701764801F043
:1054900015FB00224FF40061744801F00FFB01225C
:1054A0002221734801F00AFB01224FF450516E484B
:1054B00001F004FB01224FF400616E4801F0FEFA96
:1054C000002280216A4801F0F9FA01224FF40841D4
:1054D000644801F0F3FA01237B620123BB620023DD
:1054E000FB6203233B6307F1240319465C4801F088
:1054F00031F955237B620123BB620223FB62002347
:105500003B6307F124031946564801F023F94FF491
:10551000A8737B620123BB620223FB6200233B630F
:1055200007F1240319464E4801F014F948F2070325
:105530007B620123BB620223FB6200233B6307F112
:1055400024031946484801F005F94FF400637B62D3
:105550000123BB620223FB6200233B6307F12403A8
:105560001946424801F0F6F802237B620123BB6230
:105570000123FB6200233B6307F1240319463C48E7
:1055800001F0E8F84FF450537B620123BB62012322
:10559000FB6200233B6307F124031946324801F004
:1055A000D9F84FF400637B620123BB620123FB62E5
:1055B00000233B6307F1240319462E4801F0CAF883
:1055C000A0237B620123BB620223FB6200233B63B7
:1055D00007F124031946264801F0BCF84FF4A073E4
:1055E0007B620023BB620223FB6207F1240319469E
:1055F0001F4801F0AFF84FF420737B620023BB62B9
:105600000223FB6207F124031946154801F0A2F8B2
:105610004FF400637B620123BB620023FB62002323
:105620003B6307F1240319460E4801F093F84FF449
:1056300000437B620123BB620123FB6203233B63C4
:1056400007F124031946074801F084F840237B62E0
:105650004FF40413BB620023FB620DE000380240EC
:105660000008024000000240000402400014024012
:1056700000180240000C024007F1240319460748B5
:1056800001F068F800220421172001F06EFB1720BA
:1056900001F087FB00BF3837BD4680BD00040240E3
:1056A00080B58EB000AF07F11C0300221A605A606B
:1056B0009A60DA601A615A619A613B4600221A6068
:1056C0005A609A60DA601A615A619A612F4B4FF002
:1056D00020421A602D4B2E4A5A602C4B06229A60AB
:1056E0002A4B0022DA60294B00221A61274B102234
:1056F0005A61264B00229A61244B0022DA61234B27
:1057000000221A62214B00225A62204B4FF4805231
:105710009A621E4B0022DA621C4B4FF480421A63DD
:105720001A4B00225A63194B00229A63174B00222E
:105730005A640F23FB610F233B623C237B620023EF
:10574000BB621023FB6211233B6300237B630223B4
:105750003B600F237B600223BB600023FB601023B0
:105760003B6111237B610023BB613A4607F11C03B7
:105770001946064801F0D4FB0346002B01D0FFF781
:10578000F1FD00BF3837BD4680BD00BFA00300203B
:10579000040100A080B586B000AF3B1D00221A6056
:1057A0005A609A60DA601A612C4B1B68002B51D149
:1057B0002A4B01221A6000233B60294B9B6B284A2D
:1057C00043F001039363264B9B6B03F001033B60A3
:1057D0003B684FF480537B600223BB600023FB6077
:1057E00003233B610C237B613B1D19461D4800F0E0
:1057F000B1FF4FF680737B600223BB600023FB6028
:1058000003233B610C237B613B1D1946164800F0C6
:10581000A1FF4CF233737B600223BB600023FB606B
:1058200003233B610C237B613B1D19460F4800F0AD
:1058300091FF4FF480537B600223BB600023FB6029
:1058400003233B610C237B613B1D1946084800F094
:1058500081FF00E000BF1837BD4680BDF003002087
:10586000003802400014024000100240000C0240C8
:105870000018024080B582B000AF7860FFF78AFF61
:1058800000BF0837BD4680BD80B500AF174B184A32
:105890001A60164B4FF482725A60144B00229A60C1
:1058A000124B0022DA60114B00221A610F4B0122C9
:1058B0005A610E4B4FF400729A610C4B2822DA6148
:1058C0000A4B00221A62094B00225A62074B00223F
:1058D0009A62064B0A22DA62044801F069FB034629
:1058E000002B01D0FFF73EFD00BF80BDF403002078
:1058F0000030014080B58AB000AF786007F1140332
:1059000000221A605A609A60DA601A617B681B682C
:10591000194A93422BD100233B61184B5B6C174A09
:1059200043F480535364154B5B6C03F480533B6129
:105930003B690023FB60114B1B6B104A43F00203D1
:1059400013630E4B1B6B03F00203FB60FB683823F1
:105950007B610223BB610023FB6103233B620523C0
:105960007B6207F114031946054800F0F3FE00BFFF
:105970002837BD4680BD00BF0030014000380240DE
:105980000004024080B582B000AF3B4600221A609E
:105990005A60154B154A1A60134B42F2CF025A60F7
:1059A000114B00229A60104B0922DA600E4B002244
:1059B0009A610D4802F0CEF80346002B01D0FFF7A4
:1059C000D1FC00233B6000237B603B461946064820
:1059D00002F0CEFB0346002B01D0FFF7C3FC00BF53
:1059E0000837BD4680BD00BF4C04002000100040B9
:1059F00080B582B000AF3B4600221A605A60144B5B
:105A0000144A1A60124B53225A60114B00229A60BA
:105A10000F4B0122DA600E4B80229A610C4802F093
:105A200099F80346002B01D0FFF79CFC00233B6054
:105A300000237B603B461946054802F099FB03466C
:105A4000002B01D0FFF78EFC00BF0837BD4680BD9C
:105A5000940400200014004080B584B000AF78604A
:105A60007B681B68184A934216D10023FB60174BD2
:105A70001B6C164A43F010031364144B1B6C03F0A9
:105A80001003FB60FB6800220421362001F06DF951
:105A9000362001F086F912E07B681B680C4A9342BD
:105AA0000DD10023BB60094B1B6C084A43F0200357
:105AB0001364064B1B6C03F02003BB60BB6800BF84
:105AC0001037BD4680BD00BF0010004000380240C6
:105AD0000014004080B500AF114B124A1A60104B01
